:100000003AC100007CC50000A5C50000CEC50000B7
:10001000F7C5000020C6000049C6000072C60000F7
:100020009BC6000058C1000056C1000054C100002A
:1000300052C1000050C100004EC100004CC1000080
:100040004AC1000048C1000046C1000044C1000090
:1000500042C1000040C100003EC10000A8C600002F
:100060003AC1000038C1000036C1000034C10000B0
:1000700032C1000030C100002EC100002CC10000C0
:100080002AC1000028C1000026C1000024C10000D0
:1000900022C1000020C100001EC100001CC10000E0
:1000A0001AC1000018C1000016C1000014C10000F0
:1000B00012C1000010C100000EC100000CC1000000
:1000C0000AC1000008C1000006C1000004C1000010
:1000D00002C1000000C10000FEC00000FCC0000022
:1000E000FAC00000590523052B05370544056505B1
:1000F000720538083B082A082E08340872083F08A1
:10010000430849084D08510857085B085F08720802
:10011000650869086D08D70A4B0ADB0A4E0A510ABE
:10012000550A580A5B0AD50AD50A5E0A610A640AAA
:10013000670A6A0A6D0ADF0A7C0A7F0AD50A830AFF
:10014000870A8A0A8D0A900A930AC20A960A990AAD
:100150009C0A9F0AA20AE30AB10AB40AB80ABB0AB7
:10016000D50ABF0AC20AC60ACA0ACE0AD20A0000C3
:100170000A0B02090C0D0E08070304010000000021
:10018000000000000000000000000000000000006F
:10019000000000000000000000001211100000002C
:1001A000000000000000000000000000000000004F
:1001B000000000000102102020080810204010203C
:1001C000408002010201080402010102040810201B
:1001D0004080804020100804020180040201804019
:1001E0002010080402010804020101020408102082
:1001F0004080010204081020408005050505070520
:1002000008080808020202020A0A08080404040492
:1002100001010101010101010303030303030303BE
:10022000040707070C0C0C0C0C0C0C0C020202024D
:1002300006060606060606060B0B0B0B0B0B0B0B36
:1002400000002200250028002B002E003100340081
:1002500002010000050108010B010000210024003B
:1002600027002A002D0030003300010100000401A6
:1002700007010A014B0211241FBECFEFD1E2DEBFFE
:10028000CDBF00E00CBF12E0A0E0B2E0E0EDF0E294
:1002900000E00BBF02C007900D92AA38B107D9F752
:1002A00022E0AAE8B2E001C01D92AE3DB207E1F73C
:1002B00011E0CBE3D1E000E006C021970109802FD7
:1002C000FE010E94B10FCA33D10780E00807A9F7E9
:1002D000F8D20C94661094CE0F931F93CF93DF93B4
:1002E0000AE010E0C0E0D0E080E083D6C80FD91F5C
:1002F00001501109C9F7BE01DD0F880B990B54D2CB
:1003000020E030E040E251E4B4D11BD26333710508
:100310002CF4DF91CF911F910F91B1C09B0121531C
:1003200031092536310528F4DF91CF911F910F91C6
:100330009EC09B012E5C31092536310528F4DF91E2
:10034000CF911F910F9197C09B012E5432402536BB
:10035000310528F4DF91CF911F910F9194C0685619
:1003600071406536710528F4DF91CF911F910F918F
:100370007AC0DF91CF911F910F91089560EA72E0EA
:1003800081EB92E00E94CB0D811117C08091A002F9
:100390009091A102A091A202B091A3024097A10561
:1003A000B10559F48091A902813019F480938C022F
:1003B0000895823011F483E0F9CF089510928D02F0
:1003C00010928C0281E080938B0210928A0282E06C
:1003D00010D60E9417100E9414106FEF70E00E9458
:1003E0007C0F8093B00220E042E060E188EB92E075
:1003F0000E94980E88EB92E00E947A0E81EB92E0C8
:100400000E94C30B6BE081EB92E00E94F70A81EB44
:1004100092E00E942C0A60E085E365D642E050E05D
:100420006EEB71E080E0F7D240E060E088EB92E0B4
:100430000E947F0E6EE172E088EB92E090D260ED58
:1004400077E080E090E02ED588EB92E00C947A0E75
:1004500080918D02813029F018F0823019F00895D2
:1004600039C06DC0B5C081E480938E02089582E4E6
:1004700080938E02089583E480938E02089584E42D
:1004800080938E02089580918E02882319F082E075
:1004900080938C020895CF92EF920F931F9387E081
:1004A000C82E96E0E92E05E024E049E068E088EBFC
:1004B00092E00E94250F00E010E020E836E948E9CC
:1004C00050E061E381EB92E0CDD61F910F91EF9068
:1004D000CF90089580918B028823F9F040E060E08E
:1004E00088EB92E00E947F0E6AE272E088EB92E075
:1004F00036D241E060E088EB92E00E947F0E66E336
:1005000072E088EB92E02BD24AE050E06091B002BA
:1005100088EB92E079D210928E0280918C02813029
:1005200031F410928C0280938D0280938A02809124
:100530008A02882319F081E080938B0208958091CC
:100540008B028823D9F040E060E088EB92E00E94C3
:100550007F0E62E472E088EB92E001D241E060E05D
:1005600088EB92E00E947F0E60E572E088EB92E0FB
:10057000F6D16EE572E088EB92E0F1D141E06DE0FA
:1005800088EB92E00E947F0E60918E02662329F034
:100590004AE050E088EB92E037D29EDE80918C02F8
:1005A000823039F0833061F410928C0210928D0207
:1005B00004C010928C0280938D0281E080938A02A5
:1005C00080918A02882319F081E080938B0208953C
:1005D00080918B028823D1F181E190E0A0E0B0E02E
:1005E0008093900290939102A0939202B093930211
:1005F00082E0809394028091B0028093980280916F
:100600008E028093990260E972E081EB92E00E9491
:10061000DD0C40E060E088EB92E00E947F0E60E637
:1006200072E088EB92E09BD141E060E088EB92E0E1
:100630000E947F0E60E572E088EB92E090D14AE084
:1006400050E060918E0288EB92E0DED180918C02C6
:10065000833039F410928C0281E080938A021092E8
:100660008D0280918A02882319F081E080938B02A9
:1006700008950CD0EBC0E3D040F0DAD030F021F494
:100680005F3F19F0CCC0511115C1CFC0F0D098F325
:100690009923C9F35523B1F3951B550BBB27AA2703
:1006A00062177307840738F09F5F5F4F220F331F75
:1006B000441FAA1FA9F333D00E2E3AF0E0E830D041
:1006C00091505040E695001CCAF729D0FE2F27D044
:1006D000660F771F881FBB1F261737074807AB0712
:1006E000B0E809F0BB0B802DBF01FF2793585F4F87
:1006F0002AF09E3F510568F092C0DCC05F3FECF3EA
:10070000983EDCF3869577956795B795F7959F5F4B
:10071000C9F7880F911D9695879597F90895E1E09F
:10072000660F771F881FBB1F621773078407BA07FE
:1007300020F0621B730B840BBA0BEE1F88F7E09559
:10074000089504D06894B111B5C0089598D088F088
:100750009F5790F0B92F9927B751A0F0D1F0660FAD
:10076000771F881F991F1AF0BA95C9F712C0B130C8
:1007700081F09FD0B1E008959CC0672F782F882723
:10078000B85F39F0B93FCCF3869577956795B39507
:10079000D9F73EF490958095709561957F4F8F4F76
:1007A0009F4F0895E89409C097FB3EF4909580957B
:1007B000709561957F4F8F4F9F4F9923A9F0F92F27
:1007C00096E9BB279395F695879577956795B795A5
:1007D000F111F8CFFAF4BB0F11F460FF1BC06F5F8B
:1007E0007F4F8F4F9F4F16C0882311F096E911C09D
:1007F000772321F09EE8872F762F05C0662371F0BE
:1008000096E8862F70E060E02AF09A95660F771FD1
:10081000881FDAF7880F9695879597F9089597F9C5
:100820009F6780E870E060E008959FEF80EC089596
:1008300000240A94161617061806090608950024BF
:100840000A9412161306140605060895092E039439
:10085000000C11F4882352F0BB0F40F4BF2B11F4AD
:1008600060FF04C06F5F7F4F8F4F9F4F089557FD0C
:100870009058440F551F59F05F3F71F04795880F0E
:1008800097FB991F61F09F3F79F0879508951216A5
:1008900013061406551FF2CF4695F1DF08C0161651
:1008A00017061806991FF1CF869571056105089402
:1008B0000895E894BB2766277727CB0197F9089519
:1008C000089535D3FDDF7ADDC0E0D0E0C1DD2097AB
:1008D000E9F30E940000FACF80E090E008950895C7
:1008E000CF92DF92EF92FF920F931F93CF93DF93FC
:1008F0006C017A018B01C0E0D0E0CE15DF0581F0FC
:10090000D8016D918D01D601ED91FC910190F0819E
:10091000E02DC6011995892B11F02196EECF7E01AD
:10092000C701DF91CF911F910F91FF90EF90DF9062
:10093000CF9008956115710579F0FB0101900020B9
:10094000E9F73197AF01461B570BDC01ED91FC91A4
:100950000280F381E02D199480E090E00895EACFC1
:100960008F929F92AF92BF92EF92FF920F931F933D
:10097000CF93DF93CDB7DEB7A1970FB6F894DEBF64
:100980000FBECDBF7C01FA01CB0119A2223008F4C1
:100990002AE08E010F5D1F4F822E912CA12CB12CCD
:1009A000BF01A50194010E948F0FF901CA010150F6
:1009B00011096A3010F4605D01C0695CD8016C9364
:1009C000232B242B252B61F7B801C701B3DFA19698
:1009D0000FB6F894DEBF0FBECDBFDF91CF911F9150
:1009E0000F91FF90EF90BF90AF909F908F900895E0
:1009F0002115310541F4DC01ED91FC910190F0816C
:100A0000E02D642F1994ACCF9A01462F50E060E09E
:100A100070E0EECF0895883008F070C0A82FB0E0E5
:100A2000AA0FBB1FAC5FBD4F11967C936E9390E0F5
:100A3000FC013197E730F105A0F58827EE58FF4F0C
:100A40008F4F0C94B10F809169008C7F482B40939D
:100A50006900E89A089580916900837F440F551FCB
:100A6000440F551F482B40936900E99A08958091DF
:100A700069008F7C74E0440F551F7A95E1F7482B8D
:100A800040936900EA9A0895809169008F7366E047
:100A9000440F551F6A95E1F7482B40936900EB9A84
:100AA000089580916A008C7F482B40936A00EC9AED
:100AB000089580916A00837F440F551F440F551F8E
:100AC000482B40936A00ED9A089580916A008F7CCC
:100AD00024E0440F551F2A95E1F7482B40936A0004
:100AE000EE9A089580916A008F7396E0440F551F27
:100AF0009A95E1F7482B40936A00EF9A08951F9268
:100B00000F920FB60F9211240BB60F922F933F93B3
:100B10004F935F936F937F938F939F93AF93BF9305
:100B2000EF93FF93E0910802F09109021995FF916C
:100B3000EF91BF91AF919F918F917F916F915F9155
:100B40004F913F912F910F900BBE0F900FBE0F90C2
:100B50001F9018951F920F920FB60F9211240BB68B
:100B60000F922F933F934F935F936F937F938F9346
:100B70009F93AF93BF93EF93FF93E0910A02F0919D
:100B80000B021995FF91EF91BF91AF919F918F91BA
:100B90007F916F915F914F913F912F910F900BBE7D
:100BA0000F900FBE0F901F9018951F920F920FB6C7
:100BB0000F9211240BB60F922F933F934F935F9395
:100BC0006F937F938F939F93AF93BF93EF93FF9315
:100BD000E0910C02F0910D021995FF91EF91BF91F8
:100BE000AF919F918F917F916F915F914F913F91C5
:100BF0002F910F900BBE0F900FBE0F901F90189566
:100C00001F920F920FB60F9211240BB60F922F93D3
:100C10003F934F935F936F937F938F939F93AF9384
:100C2000BF93EF93FF93E0910E02F0910F0219959D
:100C3000FF91EF91BF91AF919F918F917F916F91B4
:100C40005F914F913F912F910F900BBE0F900FBE70
:100C50000F901F9018951F920F920FB60F921124AC
:100C60000BB60F922F933F934F935F936F937F93A6
:100C70008F939F93AF93BF93EF93FF93E091040201
:100C8000F09105021995FF91EF91BF91AF919F915E
:100C90008F917F916F915F914F913F912F910F9025
:100CA0000BBE0F900FBE0F901F9018951F920F92C2
:100CB0000FB60F9211240BB60F922F933F934F93C1
:100CC0005F936F937F938F939F93AF93BF93EF93B4
:100CD000FF93E0910602F09107021995FF91EF91C1
:100CE000BF91AF919F918F917F916F915F914F9144
:100CF0003F912F910F900BBE0F900FBE0F901F9042
:100D000018951F920F920FB60F9211240BB60F92E7
:100D10002F933F934F935F936F937F938F939F9303
:100D2000AF93BF93EF93FF93E0911002F091110204
:100D30001995FF91EF91BF91AF919F918F917F9105
:100D40006F915F914F913F912F910F900BBE0F903C
:100D50000FBE0F901F9018951F920F920FB60F9213
:100D600011240BB60F922F933F934F935F936F9382
:100D70007F938F939F93AF93BF93EF93FF93E091F4
:100D80001202F09113021995FF91EF91BF91AF916B
:100D90009F918F917F916F915F914F913F912F9193
:100DA0000F900BBE0F900FBE0F901F9018951F92C3
:100DB0000F920FB60F9211242F933F938F939F930F
:100DC000AF93BF938091D1029091D202A091D302B0
:100DD000B091D4023091D00223E0230F2D3720F4BC
:100DE0000196A11DB11D05C026E8230F0296A11D85
:100DF000B11D2093D0028093D1029093D202A09390
:100E0000D302B093D4028091D5029091D602A091E2
:100E1000D702B091D8020196A11DB11D8093D502D1
:100E20009093D602A093D702B093D802BF91AF910E
:100E30009F918F913F912F910F900FBE0F901F9018
:100E400018952FB7F8946091D1027091D2028091D9
:100E5000D3029091D4022FBF08953FB7F8948091A8
:100E6000D5029091D602A091D702B091D80226B5B2
:100E7000A89B05C02F3F19F00196A11DB11D3FBFD2
:100E8000BA2FA92F982F8827820F911DA11DB11D60
:100E9000BC01CD0142E0660F771F881F991F4A955C
:100EA000D1F708958F929F92AF92BF92CF92DF9227
:100EB000EF92FF926B017C01D0DF4B015C01C1140A
:100EC000D104E104F104F9F00E947B0FC6DFDC01DC
:100ED000CB0188199909AA09BB09883E9340A1054D
:100EE000B10568F321E0C21AD108E108F10888EEE3
:100EF000880E83E0981EA11CB11CC114D104E1042A
:100F0000F10421F7DCCFFF90EF90DF90CF90BF90FE
:100F1000AF909F908F9008958230910538F0880FA0
:100F2000991F880F991F05970197F1F708957894F5
:100F300084B5826084BD84B5816084BD85B58260DE
:100F400085BD85B5816085BDEEE6F0E0808181607C
:100F50008083E1E8F0E0108280818260808380817C
:100F600081608083E0E8F0E0808181608083E1EB54
:100F7000F0E0808184608083E0EBF0E0808181603C
:100F80008083E1E9F0E080818260808380818160FC
:100F90008083E0E9F0E0808181608083E1EAF0E035
:100FA000808182608083808181608083E0EAF0E0DC
:100FB000808181608083E1E2F1E0808182608083D2
:100FC000808181608083E0E2F1E0808181608083C4
:100FD000EAE7F0E0808184608083808182608083A2
:100FE0008081816080838081806880831092C100CD
:100FF0000895863308F0865390917B00282F28703F
:10100000977F922B90937B002091140290E4299F6C
:10101000900111248770822B80937C0080917A004C
:10102000806480937A0080917A0086FDFCCF809165
:1010300078002091790090E0922B089590E0FC01D7
:101040003197E231F10508F04DC08827E758FF4F8E
:101050008F4F87C7809180008F7703C08091800079
:101060008F7D80938000089580918000877FF9CFE5
:1010700084B58F7702C084B58F7D84BD089580913B
:10108000B0008F7703C08091B0008F7D8093B00057
:101090000895809190008F7707C0809190008F7D98
:1010A00003C080919000877F809390000895809185
:1010B000A0008F7707C08091A0008F7D03C0809132
:1010C000A000877F8093A0000895809120018F77F2
:1010D00007C0809120018F7D03C080912001877F10
:1010E000809320010895CF93DF9390E0FC01EC54AE
:1010F000FE4F2491FC01E650FE4F8491882361F15C
:1011000090E0880F991FFC01E65AFD4FC591D491DC
:10111000FC01E05CFD4FA591B491611109C09FB73E
:10112000F8948881209582238883EC912E230BC02C
:10113000623061F49FB7F8948881322F3095832311
:101140008883EC912E2B2C939FBF06C08FB7F89409
:10115000E8812E2B28838FBFDF91CF9108951F93B5
:10116000CF93DF93282F30E0F901E259FE4F8491AD
:10117000F901EC54FE4FD491F901E650FE4FC491B1
:10118000CC23B9F0162F811159DFEC2FF0E0EE0FD0
:10119000FF1FE05CFD4FA591B4919FB7F89411112A
:1011A00004C08C91D095D82302C0EC91DE2BDC9347
:1011B0009FBFDF91CF911F9108958EBD00000DB4A8
:1011C00007FEFDCF8EB50895FC01418152816381F8
:1011D000748180E092E1AAE7B0E020E04817590767
:1011E0006A077B0740F4B695A795979587952F5F7B
:1011F0002630A1F727E091E09227292F206A269533
:1012000091708091DB02882399F08FB7F894309128
:10121000DB02313059F43DB33093D9024DB33091F4
:10122000DA02309534233DBB8FBF02C08093D902D0
:101230002CBD9DBD60E0808192CF61E0FC0180818A
:101240008EDF8091DB02882361F09FB7F8942091B4
:10125000DB028091D902213019F48DBB9FBF089524
:101260008FBF08958F929F92AF92BF92FF920F937C
:101270001F93CF93DF93EC01F62E49015A0101151C
:10128000110519F01E830D8305C08DED92E09E833C
:101290008D83FFD5F88289829A82AB82BC8261E01D
:1012A0008F2D21DFCE01DF91CF911F910F91FF9004
:1012B000BF90AF909F908F90C0CF1F93CF93DF933D
:1012C000EC01162F81DF83E078DF812F76DF80E06D
:1012D00074DF182FCE01B1DF812FDF91CF911F91E5
:1012E0000895DF92EF92FF920F931F93CF93DF93B6
:1012F0008C01C62FD42EE52EF22E66DF83E05DDF53
:101300008C2F5BDFCD2DDE2DCE018F0D911D7C014D
:10131000CE15DF0521F080E050DF8993F9CFC801B9
:10132000DF91CF911F910F91FF90EF90DF9085CFCC
:101330000F931F93CF93DF93EC01062F142F44DFFD
:1013400082E03BDF802F39DF812F37DFCE01DF9155
:10135000CF911F910F9171CFDF92EF92FF920F9378
:101360001F93CF93DF938C01C62FD42EE52EF22E40
:101370002BDF82E022DF8C2F20DFCD2DDE2DCE0172
:101380008F0D911D7C01CE15DF0519F0899115DFB8
:10139000FACFC801DF91CF911F910F91FF90EF908D
:1013A000DF904BCFFF920F931F93CF93DF93EC010E
:1013B000F62E042F122F08DF85E0FFDE8F2DFDDED5
:1013C000802FFBDE812FF9DECE01DF91CF911F91BF
:1013D0000F91FF9032CF1F93CF93DF93EC01F4DE98
:1013E00080EAEBDE80E0E9DE182FCE0126DF812FD8
:1013F000DF91CF911F910895CF92DF92EF92FF92EC
:101400001F93CF93DF93EC01162F262F40EE6FE052
:10141000C9DF17DD6B017C012AE0C20ED11CE11C83
:10142000F11C0FDD6C157D058E059F0540F46EE007
:10143000CE0143DF807E1813F4CF81E001C080E04D
:1014400091E08927DF91CF911F91FF90EF90DF907E
:10145000CF90089560E8D0CF60E0CECF0F931F9378
:10146000CF93DF938C01C62FD42FF4DF8111BAC044
:10147000D130B1F108F469C0D23009F096C08C2F98
:1014800090E08031910508F090C0FC018827E55775
:10149000FF4F8F4F66C5C7E8DFEB33C0C4E8D4EA1F
:1014A0008CC0C5E8D2EE47E491C0C7E8DFEB6CC062
:1014B000C6E8D4EB69C0C7E8DFEB6AC0C6E8D4EB86
:1014C00067C0C5E8D1EB64C0C6E8D4EB69C0C5E825
:1014D000D1EB66C0C2E8D0E963C0C0E8D0E860C024
:1014E0008C2F90E08031910508F05FC0FC018827C7
:1014F000E556FF4F8F4F35C5C7E8DFEF5AC0C7E845
:10150000DFEF4FE063C0C5E8D1EF4EE45FC0C7E84E
:10151000DFEF53C0C7E8DAEF50C0C7E8DFEF34C0F1
:10152000C7E0DEEB31C0C7E0DDEA2EC0C6E8D0EF91
:101530002BC0C7E8DAEF2CC0C5E8D1EF2DC0C6E854
:10154000D0EF2EC0C2E8D0ED2BC08C2F90E0FC0174
:101550003497EC30F10548F58827E555FF4F8F4F5C
:1015600000C5C7E8DFEF02C0C7E8DAEF49E02EC0E8
:10157000C7E8DFEF02C0C7E8DEEF44E027C0C7E8F6
:10158000DAEFFBCFC7E8DAEF43E020C0C7E8DFEFD0
:1015900041E01CC0C6E8DBEF41E418C0C7E8DAEF61
:1015A00040E014C0C2E8D9EDFBCF81E01BC0C7E822
:1015B000DFEB4FE10BC0C7E8DFEB47E007C0C7E850
:1015C000DFEF4FE303C0C7E8DFEF4BE06AE2C8019B
:1015D000AFDE4D2F69E2C801ABDE4C2F68E2C801D7
:1015E000A7DE80E0DF91CF911F910F91089541E038
:1015F00035CF0F931F93FB014423B1F00383128374
:10160000890122273327902F9C71802F837048E017
:10161000949F800D11248860818355E0169507956D
:101620005A95E1F700830DC0C80123E09695879590
:101630002A95E1F780830295000F007E01831382D3
:1016400012821F910F9108958F929F92AF92BF9235
:10165000CF92DF92EF92FF920F931F93CF93DF937E
:1016600000D01F92CDB7DEB77C01D62EC42E480124
:101670005901F0DE811119C0950184014C2DBE0184
:101680006F5F7F4FC701B5DFDD2029F081E0D81201
:101690000BC064E201C060E224E0AE014F5F5F4F27
:1016A000C7015ADE80E001C081E00F900F900F90DB
:1016B0000F90DF91CF911F910F91FF90EF90DF90EE
:1016C000CF90BF90AF909F908F9008958F929F92F0
:1016D000AF92BF92CF92DF92EF92FF920F931F9340
:1016E000CF93DF9300D01F92CDB7DEB76C01F62EFB
:1016F000E42E48015901AEDE811134C082E0F816B3
:10170000A9F08F1540F0FF20D1F081E0F81229C038
:1017100044E0F42E15C084E0F81671F0F81648F095
:1017200085E0F8121EC088E1F82E0AC038E0F32EDA
:1017300007C020E1F22E04C094E1F92E01C0F12C83
:10174000950184014E2DBE016F5F7F4FC60151DFB1
:1017500024E0AE014F5F5F4F6F2DC601FDDD80E0DD
:1017600001C081E00F900F900F900F90DF91CF910B
:101770001F910F91FF90EF90DF90CF90BF90AF90AF
:101780009F908F900895AF92BF92CF92DF92EF9289
:10179000FF920F931F93CF93DF93CDB7DEB764977C
:1017A0000FB6F894DEBF0FBECDBF7C010DDD80EC1F
:1017B00004DDC70142DD6AE070E080E090E072DBAA
:1017C0008E010F5F1F4F8EE0F80111928A95E9F7A5
:1017D0002EE0A80160E3C701BFDD2EE0A80160E4B0
:1017E000C701BADD2EE0A80160E5C701B5DD40E024
:1017F00060E6C7019DDD40E060E7C70199DD43EA8F
:101800006BE2C70195DD24E047E660E6C701CADD6B
:1018100021E047E660E7C701C5DD86E0E5E1F2E0EB
:10182000DE011F9601900D928A95E1F75E01FFE0BF
:10183000AF0EB11CC12CD12CF50161915F0141E0CB
:10184000F1E0CF16D10409F040E000E010E098018B
:10185000C7013CDF811117C08FEFC81AD80AE6E034
:10186000CE16D10449F700E010E0980141E060E0B5
:10187000C701EADE811107C000E010E0980141E0F5
:1018800061E0C701E1DE64960FB6F894DEBF0FBEDB
:10189000CDBFDF91CF911F910F91FF90EF90DF901F
:1018A000CF90BF90AF9008954F925F926F927F92CA
:1018B000AF92BF92CF92DF92EF92FF920F931F935E
:1018C000CF93DF93CDB7DEB72D970FB6F894DEBF79
:1018D0000FBECDBF5C01FA012481293008F057C04A
:1018E000E62EF12C80819181A281B381AC01BD01F2
:1018F000442777FD43955527662777272C013D011F
:1019000044245524662420E47222B7FD05C00FEF5D
:1019100017E020E030E004C00FEF1FEF2FEF3FE1B2
:101920006F01082319232A233B23BE016F5F7F4FDA
:10193000C5015FDEF6011481812F4528462847281E
:1019400009F080648D83412F50E0B601685F7F4FBE
:10195000CE01069677D325E0210F8701000F111FD6
:101960000E0D1F1D0B581D4FAE014F5F5F4FF8014D
:101970006181C501F1DCF801108128E048E0612FA8
:10198000C50110DD612FC50198DC807709F084E086
:101990002D960FB6F894DEBF0FBECDBFDF91CF916D
:1019A0001F910F91FF90EF90DF90CF90BF90AF907D
:1019B0007F906F905F904F9008959F92AF92BF92EB
:1019C000CF92DF92EF92FF920F931F93CF93DF930B
:1019D00000D0CDB7DEB7FB0124812930D8F57B01DB
:1019E0008C0180911B0290911C02A0911D028983A1
:1019F0009A83AB83CE0101966C015E0194E0A90E3F
:101A0000B11CF60191906F01292D30E0F901EE0F24
:101A1000FF1F2E0F3F1FF901EB58FD4F6081C801DA
:101A20004CDC83FD12C0A701692DC8010F900F90F7
:101A30000F90DF91CF911F910F91FF90EF90DF906A
:101A4000CF90BF90AF909F902FCFCA14DB04C9F600
:101A500082E001C084E00F900F900F90DF91CF9152
:101A60001F910F91FF90EF90DF90CF90BF90AF90BC
:101A70009F9008957F928F929F92AF92BF92CF9244
:101A8000DF92EF92FF920F931F93CF93DF9300D0DB
:101A90001F921F92CDB7DEB74C015A0124E0629F1E
:101AA00080011124F801E359FD4F25E0AE014F5F9D
:101AB0005F4F618116DC8A819981C82ED12C45E067
:101AC000D594C7944A95E1F7E8E09E9FC00CD11CDD
:101AD00011240D2C000CEE08FF0883FF20C092E0BB
:101AE000CC0CDD1CEE1CFF1C9A95D1F78370C80E40
:101AF000D11CE11CF11CFE2CED2CDC2CCC248B81A8
:101B0000C80ED11CE11CF11CFE2CED2CDC2CCC24CD
:101B10008C81C80ED11CE11CF11C6894F7F88D81F2
:101B20008F70782EF8E0F81710F1F801E359FD4FA7
:101B30006081C401C2DB83FF02C06894F6F8F5013E
:101B4000C082D182E282F3827482A501485F5F4F36
:101B500003591D4F272DF8016281C401C2DB20E02B
:101B6000F80143816CE2C4011DDC80E001C081E02A
:101B70000F900F900F900F900F90DF91CF911F91CA
:101B80000F91FF90EF90DF90CF90BF90AF909F901C
:101B90008F907F9008950F931F93CF93DF93EC0165
:101BA0008B0119DC80FF03C0A80160E004C081FF45
:101BB00008C0A80161E0CE01DF91CF911F910F9184
:101BC00059CF85E0DF91CF911F910F910895CF9369
:101BD000DF93EC0160E08E81C2DA81E090E09CD975
:101BE00061E08E81BCDA81E090E096D960E08E8180
:101BF000B6DA84E690E0DF91CF918EC9CF92DF9282
:101C0000EF92FF920F931F93CF93DF936C017C01B0
:101C100087E0E80EF11CC0E0D0E0062F10E0B8012C
:101C20000C2E02C0759567950A94E2F76170F70172
:101C300081917F0194DA2196C430D10581F7C601E4
:101C4000DF91CF911F910F91FF90EF90DF90CF9098
:101C5000BECFCF92DF92EF92FF920F931F93CF935D
:101C6000DF936C017C0187E0E80EF11CC0E0D0E05E
:101C7000062F10E0B8010C2E02C0759567950A94E6
:101C8000E2F76170F70181917F0169DA2196C8302E
:101C9000D10581F7C601DF91CF911F910F91FF9080
:101CA000EF90DF90CF9093CF1F93CF93DF93EC0112
:101CB000162F642F8C8153DA8D818F3F11F060E0F5
:101CC0004EDA8F85612F84FF05C0CE01DF91CF9161
:101CD0001F91BFCF70E084E0759567958A95E1F715
:101CE000CE018CDF612FCE01DF91CF911F9186CF86
:101CF00040E0DACF61E0FCDF80ED97E00DC9FC0148
:101D0000443008F043E08389481710F04FEF480F44
:101D1000DF01A40FB11D54969C91690F6068CF013B
:101D2000E7CFFC016089262F2460208B6C60E0CF18
:101D3000EF92FF920F931F93CF93DF93EC0142300A
:101D400018F08F8588608F874B8B1C8A80E48D8B81
:101D50006E8B70E0605C7F4F6F8B222329F04130E7
:101D600019F48F8584608F8761E08C81BCD98D8167
:101D70008F3F11F061E0B7D961E08E81B4D97E0167
:101D800087E0E80EF11C00E010E08F8584FD03C0C1
:101D900084E090E002C088E090E00817190744F45E
:101DA00061E0F70181917F019ED90F5F1F4FEDCF59
:101DB00080E593ECB1D860E08C81D1D960E08E8170
:101DC000CED98D818F3F11F060E0C9D96F8564FD58
:101DD00016C063E0CE0112DF84E991E19DD863E093
:101DE000CE010CDF84E991E197D863E0CE0106DFF4
:101DF00086E990E091D862E0CE0100DF11C0606218
:101E0000CE0176DF84E991E187D86F856062CE01EB
:101E10006FDF86E990E080D86F856062CE0168DF71
:101E20006F856062CE0164DF84E0888BCE0179DF4C
:101E3000CE0160DF82E0898B66E0CE01DF91CF9139
:101E40001F910F91FF90EF9053CFCF92EF920F938E
:101E5000FC011382128282E892E091838083648382
:101E60008FEF8583468327830087E186C2861386AA
:101E7000148615861686178620E041E060E1CF01C2
:101E80000F91EF90CF9054CF41E00EDF81E090E0D2
:101E90000895CF93CFB7F8948091DC02811123C0CD
:101EA000EFE2F2E08491E9EEF1E09491E82FF0E0C6
:101EB000EE0FFF1FE65AFD4FA591B491EC91E92377
:101EC00019F461E085E34BD961E085E30CD98CB569
:101ED00080618CBD8CB580648CBD61E084E303D9E6
:101EE00061E083E300D98091DC028F5F8093DC02A4
:101EF000CFBFCF910895089597FB072E16F4009455
:101F000006D077FD08D035D007FC05D03EF490957B
:101F100081959F4F0895709561957F4F0895A1E237
:101F20001A2EAA1BBB1BFD010DC0AA1FBB1FEE1F53
:101F3000FF1FA217B307E407F50720F0A21BB30B9E
:101F4000E40BF50B661F771F881F991F1A9469F71A
:101F500060957095809590959B01AC01BD01CF0176
:101F60000895EE0FFF1F881F8BBF0790F691E02D9D
:101F70001994AA1BBB1B51E107C0AA1FBB1FA617C0
:101F8000B70710F0A61BB70B881F991F5A95A9F722
:101F900080959095BC01CD0108958F929F92AF924C
:101FA000BF92CF92DF92EF92FF92CF93DF93EC013B
:101FB000688179818A819B8161157105810591050F
:101FC00021F464E279ED8BE597E02DE133EF41E018
:101FD00050E041D049015A019B01AC01A7EAB1E4AC
:101FE00056D06B017C01ACEEB4EFA50194015BD03F
:101FF000DC01CB018C0D9D1DAE1DBF1DB7FF03C0C5
:102000000197A109B04888839983AA83BB839F77EE
:10201000DF91CF91FF90EF90DF90CF90BF90AF9086
:102020009F908F900895B9CF80E092E0B6CFA0E066
:10203000B0E08093000290930102A0930202B0935B
:1020400003020895FB01DC0102C001900D92415092
:102050005040D8F70895052E97FB16F400940FD042
:1020600057FD05D05CDF07FC02D046F408C0509550
:102070004095309521953F4F4F4F5F4F0895909574
:102080008095709561957F4F8F4F9F4F08950FD02A
:10209000A59F900DB49F900DA49F800D911D1124BC
:1020A0000895B7FFF4CFF3DF821B930B0895A29F2F
:1020B000B001B39FC001A39F700D811D1124911D1C
:1020C000B29F700D811D1124911D0895F894FFCFCA
:1020D000010000000A050A050A050A050A050A05A5
:1020E0000A050A0501000102030405000102342E5D
:1020F00035204C6561646572730053544154453A10
:102100002049444C45004465766963652049443A5A
:10211000200053544154453A204143544956450008
:1021200053454C454354494F4E202D3E20002D0031
:1021300053544154453A20564F544544006061661B
:1021400001707176023031364041465051560000E0
:0A2150000000440F70046C046F04DB
:00000001FF
