:1000000033C1000061C100005FC100005DC100009C
:100010005BC1000059C1000057C1000055C100007C
:1000200053C1000051C100004FC100004DC100008C
:100030004BC1000049C1000047C1000045C100009C
:1000400043C1000041C100003FC100003DC10000AC
:100050003BC1000039C1000037C10000BDC3000032
:1000600033C1000031C100002FC100002DC10000CC
:100070002BC1000029C1000027C1000025C10000DC
:1000800023C1000021C100001FC100001DC10000EC
:100090001BC1000019C1000017C1000015C10000FC
:1000A00013C1000011C100000FC100000DC100000C
:1000B0000BC1000009C1000007C1000005C100001C
:1000C00003C1000001C10000FFC00000FDC000002E
:1000D000FBC00000F9C00000F7C00000F5C0000040
:1000E000F3C000004D0550053F0543054905870550
:1000F000540558055E05620566056C0570057405B6
:1001000087057A057E058205EC076007F00763071F
:1001100066076A076D077007EA07EA07730776073D
:1001200079077C077F078207F40791079407EA079E
:1001300098079C079F07A207A507A807D707AB0743
:10014000AE07B107B407B707F807C607C907CD0759
:10015000D007EA07D407D707DB07DF07E307E7077E
:1001600000000A0B02090C0D0E0807030401000031
:10017000000000000000000000000000000000007F
:10018000000000000000000000000000121110003C
:10019000000000000000000000000000000000005F
:1001A000000000000000010210202008081020407C
:1001B000102040800201020108040201010204082B
:1001C00010204080804020100804020180040201B9
:1001D0008040201008040201080402010102040802
:1001E000102040800102040810204080050505050C
:1001F000070508080808020202020A0A080804049F
:1002000004040101010101010101030303030303CC
:100210000303040707070C0C0C0C0C0C0C0C02025B
:10022000020206060606060606060B0B0B0B0B0B58
:100230000B0B00002200250028002B002E003100AF
:10024000340002010000050108010B01000021003B
:10025000240027002A002D00300033000101000097
:10026000040107010A01E70111241FBECFEFD1E20B
:10027000DEBFCDBF00E00CBF12E0A0E0B2E0EAEFCD
:10028000FAE100E00BBF02C007900D92A837B1075A
:10029000D9F722E0A8E7B2E001C01D92AE3CB20758
:1002A000E1F711E0C4E3D1E000E006C021970109C5
:1002B000802FFE010E94C60CC333D10780E00807DF
:1002C000A9F7DAD10C947B0D9BCE80E0A7D30097E1
:1002D00009F471C09C0124513109293C310508F40D
:1002E00062C09C012C593109293C310508F45FC0DA
:1002F0009C012C513240293C310508F460C08653E2
:100300009140893C910508F44AC0089510927B02FF
:1003100010927A0281E0809379021092780282E052
:100320007DD30E942C0D0E94290D6FEF70E00E947A
:10033000910C8093A00220E042E060E188EA92E024
:100340000E94AD0B88EA92E00E948F0B81EA92E056
:100350002FD76BE081EA92E05FD681EA92E091D5F7
:1003600040E060E088EA92E00E94940B6EE072E068
:1003700088EA92E0CFD160ED77E080E090E0A7D20C
:1003800088EA92E00C948F0B80917B02813029F0F7
:1003900018F0823019F0089539C090C0FAC081E495
:1003A00080937C02089582E480937C02089583E424
:1003B00080937C02089584E480937C020895809168
:1003C0007C02882319F082E080937A020895CF920C
:1003D000EF920F931F9387E0C82E96E0E92E05E079
:1003E00024E049E068E088EA92E00E943A0C00E0EC
:1003F00010E020E836E948E950E061E381EA92E064
:1004000046D41F910F91EF90CF900895809179027B
:10041000882329F11092790288EA92E00E948F0BDA
:1004200040E060E088EA92E00E94940B6AE172E0AA
:1004300088EA92E06FD141E060E088EA92E00E94B1
:10044000940B66E272E088EA92E064D14AE050E000
:100450006091A00288EA92E0B9D110927C0260E932
:1004600072E081EA92E00E94E00A811112C080915C
:10047000900290919102A0919202B09193024097C4
:10048000A105B10531F480919902813011F4809376
:100490007A0280917A02813031F410927A0280934C
:1004A0007B028093780280917802882331F081E08A
:1004B00080937902109278020895089580917902CC
:1004C000882309F11092790288EA92E00E948F0B4A
:1004D00040E060E088EA92E00E94940B62E372E000
:1004E00088EA92E017D141E060E088EA92E00E9459
:1004F000940B60E472E088EA92E00CD16CE472E064
:1005000088EA92E007D141E06BE088EA92E00E943D
:10051000940B60917C02662319F088EA92E0FBD08C
:10052000D4DE60E972E081EA92E00E94E00A811183
:1005300013C08091900290919102A0919202B0918B
:1005400093024097A105B10539F480919902823058
:1005500019F483E080937A0280917A02823039F034
:10056000833061F410927A0210927B0204C01092E0
:100570007A0280937B0281E08093780280917802F6
:10058000882331F01092780281E0809379020895F7
:10059000089580917902882309F43DC01092790270
:1005A00081E190E0A0E0B0E080938002909381022E
:1005B000A0938202B093830282E0809384028091B0
:1005C000A0028093880280917C028093890260E877
:1005D00072E081EA92E006D788EA92E00E948F0BEF
:1005E00040E060E088EA92E00E94940B6EE472E0E2
:1005F00088EA92E08FD041E060E088EA92E00E94D1
:10060000940B60E472E088EA92E084D060917C020E
:1006100088EA92E080D060E972E081EA92E0D0D787
:10062000811113C08091900290919102A091920249
:10063000B09193024097A105B10539F480919902D8
:10064000823019F483E080937A0280917A028330B9
:1006500039F410927A0281E08093780210927B0242
:1006600080917802882331F01092780281E08093A3
:1006700079020895089508956FD1FDDF47DEC0E047
:10068000D0E082DE2097E9F30E940000FACF80E0FC
:1006900090E008950895CF92DF92EF92FF920F932A
:1006A0001F93CF93DF936C017A018B01C0E0D0E000
:1006B000CE15DF0581F0D8016D918D01D601ED9148
:1006C000FC910190F081E02DC6011995892B11F064
:1006D0002196EECF7E01C701DF91CF911F910F913F
:1006E000FF90EF90DF90CF9008956115710579F03C
:1006F000FB0101900020E9F73197AF01461B570B32
:10070000DC01ED91FC910280F381E02D199480E0F1
:1007100090E00895EACFDC01ED91FC910190F08129
:10072000E02D19948F929F92AF92BF92EF92FF9219
:100730000F931F93CF93DF93CDB7DEB7A1970FB67B
:10074000F894DEBF0FBECDBF7C01FA01CB0119A228
:10075000223008F42AE08E010F5D1F4F822E912C6B
:10076000A12CB12CBF01A50194010E94A40CF90198
:10077000CA01015011096A3010F4605D01C0695C62
:10078000D8016C93232B242B252B61F7B801C701CB
:10079000ACDFA1960FB6F894DEBF0FBECDBFDF91E0
:1007A000CF911F910F91FF90EF90BF90AF909F90CE
:1007B0008F9008952115310541F4DC01ED91FC91F4
:1007C0000190F081E02D642F1994ACCF9A01462F4F
:1007D00050E060E070E0EECF1F920F920FB60F92E4
:1007E00011242F933F938F939F93AF93BF93809147
:1007F000C1029091C202A091C302B091C402309193
:10080000C00223E0230F2D3720F40196A11DB11D56
:1008100005C026E8230F0296A11DB11D2093C0023A
:100820008093C1029093C202A093C302B093C4020A
:100830008091C5029091C602A091C702B091C802F2
:100840000196A11DB11D8093C5029093C602A0938D
:10085000C702B093C802BF91AF919F918F913F9112
:100860002F910F900FBE0F901F9018952FB7F894EF
:100870006091C1027091C2028091C3029091C40242
:100880002FBF08953FB7F8948091C5029091C6029A
:10089000A091C702B091C80226B5A89B05C02F3F02
:1008A00019F00196A11DB11D3FBFBA2FA92F982F96
:1008B0008827820F911DA11DB11DBC01CD0142E011
:1008C000660F771F881F991F4A95D1F708958F9259
:1008D0009F92AF92BF92CF92DF92EF92FF926B0105
:1008E0007C01D0DF4B015C01C114D104E104F104AF
:1008F000F9F00E94900CC6DFDC01CB018819990940
:10090000AA09BB09883E9340A105B10568F321E01F
:10091000C21AD108E108F10888EE880E83E0981E1B
:10092000A11CB11CC114D104E104F10421F7DCCFF6
:10093000FF90EF90DF90CF90BF90AF909F908F90FF
:1009400008958230910538F0880F991F880F991FFC
:1009500005970197F1F70895789484B5826084BD76
:1009600084B5816084BD85B5826085BD85B58160B3
:1009700085BDEEE6F0E0808181608083E1E8F0E013
:100980001082808182608083808181608083E0E842
:10099000F0E0808181608083E1EBF0E08081846021
:1009A0008083E0EBF0E0808181608083E1E9F0E02A
:1009B000808182608083808181608083E0E9F0E0D3
:1009C000808181608083E1EAF0E0808182608083C1
:1009D000808181608083E0EAF0E0808181608083B3
:1009E000E1E2F1E0808182608083808181608083A8
:1009F000E0E2F1E0808181608083EAE7F0E08081DD
:100A00008460808380818260808380818160808334
:100A10008081806880831092C1000895863308F039
:100A2000865390917B00282F2870977F922B90936C
:100A30007B002091040290E4299F9001112487708B
:100A4000822B80937C0080917A00806480937A006E
:100A500080917A0086FDFCCF80917800209179000A
:100A600090E0922B089590E0FC013197E231F1057E
:100A700008F04DC08827EE58FF4F8F4F87C78091F1
:100A800080008F7703C0809180008F7D80938000ED
:100A9000089580918000877FF9CF84B58F7702C059
:100AA00084B58F7D84BD08958091B0008F7703C099
:100AB0008091B0008F7D8093B00008958091900068
:100AC0008F7707C0809190008F7D03C08091900048
:100AD000877F8093900008958091A0008F7707C052
:100AE0008091A0008F7D03C08091A000877F8093BC
:100AF000A0000895809120018F7707C08091200188
:100B00008F7D03C080912001877F8093200108950D
:100B1000CF93DF9390E0FC01EA55FE4F2491FC0156
:100B2000E451FE4F8491882361F190E0880F991F72
:100B3000FC01E45BFD4FC591D491FC01EE5CFD4FDF
:100B4000A591B491611109C09FB7F894888120954F
:100B500082238883EC912E230BC0623061F49FB70F
:100B6000F8948881322F309583238883EC912E2B43
:100B70002C939FBF06C08FB7F894E8812E2B288353
:100B80008FBFDF91CF9108951F93CF93DF93282FCD
:100B900030E0F901E05AFE4F8491F901EA55FE4F29
:100BA000D491F901E451FE4FC491CC23B9F0162F32
:100BB000811159DFEC2FF0E0EE0FFF1FEE5CFD4FCF
:100BC000A591B4919FB7F894111104C08C91D09560
:100BD000D82302C0EC91DE2BDC939FBFDF91CF9135
:100BE0001F9108958EBD00000DB407FEFDCF8EB598
:100BF0000895FC01418152816381748180E092E11A
:100C0000AAE7B0E020E0481759076A077B0740F4DD
:100C1000B695A795979587952F5F2630A1F727E082
:100C200091E09227292F206A269591708091CB021E
:100C3000882399F08FB7F8943091CB02313059F472
:100C40003DB33093C9024DB33091CA02309534237D
:100C50003DBB8FBF02C08093C9022CBD9DBD60E02B
:100C6000808192CF61E0FC0180818EDF8091CB0298
:100C7000882361F09FB7F8942091CB028091C9023C
:100C8000213019F48DBB9FBF08958FBF08958F92B7
:100C90009F92AF92BF92FF920F931F93CF93DF93D8
:100CA000EC01F62E49015A010115110519F01E83B8
:100CB0000D8305C08DEC92E09E838D83FFD5F88275
:100CC00089829A82AB82BC8261E08F2D21DFCE01C6
:100CD000DF91CF911F910F91FF90BF90AF909F90A8
:100CE0008F90C0CF1F93CF93DF93EC01162F81DF3E
:100CF00083E078DF812F76DF80E074DF182FCE016C
:100D0000B1DF812FDF91CF911F910895DF92EF9294
:100D1000FF920F931F93CF93DF938C01C62FD42E96
:100D2000E52EF22E66DF83E05DDF8C2F5BDFCD2DBD
:100D3000DE2DCE018F0D911D7C01CE15DF0521F03A
:100D400080E050DF8993F9CFC801DF91CF911F91E7
:100D50000F91FF90EF90DF9085CF0F931F93CF936C
:100D6000DF93EC01062F142F44DF82E03BDF802F5E
:100D700039DF812F37DFCE01DF91CF911F910F91A6
:100D800071CFDF92EF92FF920F931F93CF93DF9378
:100D90008C01C62FD42EE52EF22E2BDF82E022DF2F
:100DA0008C2F20DFCD2DDE2DCE018F0D911D7C01EE
:100DB000CE15DF0519F0899115DFFACFC801DF9153
:100DC000CF911F910F91FF90EF90DF904BCFFF924B
:100DD0000F931F93CF93DF93EC01F62E042F122F66
:100DE00008DF85E0FFDE8F2DFDDE802FFBDE812F0B
:100DF000F9DECE01DF91CF911F910F91FF9032CF9D
:100E00001F93CF93DF93EC01F4DE80EAEBDE80E00A
:100E1000E9DE182FCE0126DF812FDF91CF911F91C0
:100E20000895CF92DF92EF92FF921F93CF93DF93BB
:100E3000EC01162F262F40EE6FE0C9DF17DD6B01A6
:100E40007C012AE0C20ED11CE11CF11C0FDD6C15E7
:100E50007D058E059F0540F46EE0CE0143DF807E68
:100E60001813F4CF81E001C080E091E08927DF9181
:100E7000CF911F91FF90EF90DF90CF90089560E8A1
:100E8000D0CF60E0CECF0F931F93CF93DF938C0131
:100E9000C62FD42FF4DF8111BAC0D130B1F108F4DC
:100EA00069C0D23009F096C08C2F90E08031910556
:100EB00008F090C0FC018827EC57FF4F8F4F66C5A4
:100EC000C7E8DFEB33C0C4E8D4EA8CC0C5E8D2EE93
:100ED00047E491C0C7E8DFEB6CC0C6E8D4EB69C05B
:100EE000C7E8DFEB6AC0C6E8D4EB67C0C5E8D1EB62
:100EF00064C0C6E8D4EB69C0C5E8D1EB66C0C2E8FF
:100F0000D0E963C0C0E8D0E860C08C2F90E08031A9
:100F1000910508F05FC0FC018827EC56FF4F8F4F0A
:100F200035C5C7E8DFEF5AC0C7E8DFEF4FE063C061
:100F3000C5E8D1EF4EE45FC0C7E8DFEF53C0C7E8B4
:100F4000DAEF50C0C7E8DFEF34C0C7E0DEEB31C0F6
:100F5000C7E0DDEA2EC0C6E8D0EF2BC0C7E8DAEF65
:100F60002CC0C5E8D1EF2DC0C6E8D0EF2EC0C2E836
:100F7000D0ED2BC08C2F90E0FC013497EC30F105C4
:100F800048F58827EC55FF4F8F4F00C5C7E8DFEFC6
:100F900002C0C7E8DAEF49E02EC0C7E8DFEF02C0C1
:100FA000C7E8DEEF44E027C0C7E8DAEFFBCFC7E8C9
:100FB000DAEF43E020C0C7E8DFEF41E01CC0C6E83D
:100FC000DBEF41E418C0C7E8DAEF40E014C0C2E844
:100FD000D9EDFBCF81E01BC0C7E8DFEB4FE10BC0D1
:100FE000C7E8DFEB47E007C0C7E8DFEF4FE303C028
:100FF000C7E8DFEF4BE06AE2C801AFDE4D2F69E2E0
:10100000C801ABDE4C2F68E2C801A7DE80E0DF91AB
:10101000CF911F910F91089541E035CF0F931F930A
:10102000FB014423B1F00383128389012227332774
:10103000902F9C71802F837048E0949F800D112425
:101040008860818355E0169507955A95E1F70083EE
:101050000DC0C80123E0969587952A95E1F7808316
:101060000295000F007E0183138212821F910F915F
:1010700008958F929F92AF92BF92CF92DF92EF929C
:10108000FF920F931F93CF93DF9300D01F92CDB7A2
:10109000DEB77C01D62EC42E48015901F0DE811145
:1010A00019C0950184014C2DBE016F5F7F4FC701B0
:1010B000B5DFDD2029F081E0D8120BC064E201C069
:1010C00060E224E0AE014F5F5F4FC7015ADE80E06F
:1010D00001C081E00F900F900F900F90DF91CF91A2
:1010E0001F910F91FF90EF90DF90CF90BF90AF9046
:1010F0009F908F9008958F929F92AF92BF92CF92C0
:10110000DF92EF92FF920F931F93CF93DF9300D064
:101110001F92CDB7DEB76C01F62EE42E48015901BF
:10112000AEDE811134C082E0F816A9F08F1540F0D0
:10113000FF20D1F081E0F81229C044E0F42E15C060
:1011400084E0F81671F0F81648F085E0F8121EC039
:1011500088E1F82E0AC038E0F32E07C020E1F22E15
:1011600004C094E1F92E01C0F12C950184014E2DAB
:10117000BE016F5F7F4FC60151DF24E0AE014F5FBC
:101180005F4F6F2DC601FDDD80E001C081E00F9053
:101190000F900F900F90DF91CF911F910F91FF90C3
:1011A000EF90DF90CF90BF90AF909F908F90089579
:1011B000AF92BF92CF92DF92EF92FF920F931F9365
:1011C000CF93DF93CDB7DEB764970FB6F894DEBF49
:1011D0000FBECDBF7C010DDD80EC04DDC70142DD1B
:1011E0006AE070E080E090E072DB8E010F5F1F4FDD
:1011F0008EE0F80111928A95E9F72EE0A80160E3EC
:10120000C701BFDD2EE0A80160E4C701BADD2EE012
:10121000A80160E5C701B5DD40E060E6C7019DDDDE
:1012200040E060E7C70199DD43EA6BE2C70195DD65
:1012300024E047E660E6C701CADD21E047E660E753
:10124000C701C5DD86E0E5E0F2E0DE011F96019012
:101250000D928A95E1F75E01FFE0AF0EB11CC12C43
:10126000D12CF50161915F0141E0F1E0CF16D1048D
:1012700009F040E000E010E09801C7013CDF811177
:1012800017C08FEFC81AD80AE6E0CE16D10449F786
:1012900000E010E0980141E060E0C701EADE811162
:1012A00007C000E010E0980141E061E0C701E1DE25
:1012B00064960FB6F894DEBF0FBECDBFDF91CF911D
:1012C0001F910F91FF90EF90DF90CF90BF90AF9064
:1012D00008954F925F926F927F92AF92BF92CF929A
:1012E000DF92EF92FF920F931F93CF93DF93CDB7CF
:1012F000DEB72D970FB6F894DEBF0FBECDBF5C01F1
:10130000FA012481293008F057C0E62EF12C8081A3
:101310009181A281B381AC01BD01442777FD439542
:101320005527662777272C013D0144245524662440
:1013300020E47222B7FD05C00FEF17E020E030E097
:1013400004C00FEF1FEF2FEF3FE16F0108231923B8
:101350002A233B23BE016F5F7F4FC5015FDEF6018D
:101360001481812F45284628472809F080648D8301
:10137000412F50E0B601685F7F4FCE01069677D3CC
:1013800025E0210F8701000F111F0E0D1F1D0D59A4
:101390001D4FAE014F5F5F4FF8016181C501F1DC68
:1013A000F801108128E048E0612FC50110DD612FB0
:1013B000C50198DC807709F084E02D960FB6F8948B
:1013C000DEBF0FBECDBFDF91CF911F910F91FF9078
:1013D000EF90DF90CF90BF90AF907F906F905F9035
:1013E0004F9008959F92AF92BF92CF92DF92EF926B
:1013F000FF920F931F93CF93DF9300D0CDB7DEB74B
:10140000FB0124812930D8F57B018C0180910B02EE
:1014100090910C02A0910D0289839A83AB83CE0137
:1014200001966C015E0194E0A90EB11CF601919049
:101430006F01292D30E0F901EE0FFF1F2E0F3F1F26
:10144000F901ED59FD4F6081C8014CDC83FD12C0EC
:10145000A701692DC8010F900F900F90DF91CF91D8
:101460001F910F91FF90EF90DF90CF90BF90AF90C2
:101470009F902FCFCA14DB04C9F682E001C084E03C
:101480000F900F900F90DF91CF911F910F91FF90D0
:10149000EF90DF90CF90BF90AF909F9008957F9294
:1014A0008F929F92AF92BF92CF92DF92EF92FF9274
:1014B0000F931F93CF93DF9300D01F921F92CDB74E
:1014C000DEB74C015A0124E0629F80011124F8012B
:1014D000E55AFD4F25E0AE014F5F5F4F618116DC9D
:1014E0008A819981C82ED12C45E0D594C7944A951C
:1014F000E1F7E8E09E9FC00CD11C11240D2C000CDC
:10150000EE08FF0883FF20C092E0CC0CDD1CEE1C2F
:10151000FF1C9A95D1F78370C80ED11CE11CF11CF9
:10152000FE2CED2CDC2CCC248B81C80ED11CE11CB4
:10153000F11CFE2CED2CDC2CCC248C81C80ED11C93
:10154000E11CF11C6894F7F88D818F70782EF8E01B
:10155000F81710F1F801E55AFD4F6081C401C2DBB4
:1015600083FF02C06894F6F8F501C082D182E2825E
:10157000F3827482A501485F5F4F055A1D4F272DE6
:10158000F8016281C401C2DB20E0F80143816CE212
:10159000C4011DDC80E001C081E00F900F900F902E
:1015A0000F900F90DF91CF911F910F91FF90EF90CF
:1015B000DF90CF90BF90AF909F908F907F900895D5
:1015C0000F931F93CF93DF93EC018B0119DC80FF06
:1015D00003C0A80160E004C081FF08C0A80161E069
:1015E000CE01DF91CF911F910F9159CF85E0DF910F
:1015F000CF911F910F910895CF93DF93EC0160E09D
:101600008E81C2DA81E090E09CD961E08E81BCDA03
:1016100081E090E096D960E08E81B6DA84E690E0D1
:10162000DF91CF918EC9CF92DF92EF92FF920F930D
:101630001F93CF93DF936C017C0187E0E80EF11CD0
:10164000C0E0D0E0062F10E0B8010C2E02C0759566
:1016500067950A94E2F76170F70181917F0194DA4E
:101660002196C430D10581F7C601DF91CF911F913A
:101670000F91FF90EF90DF90CF90BECFCF92DF928F
:10168000EF92FF920F931F93CF93DF936C017C0136
:1016900087E0E80EF11CC0E0D0E0062F10E0B801B2
:1016A0000C2E02C0759567950A94E2F76170F701F8
:1016B00081917F0169DA2196C830D10581F7C60191
:1016C000DF91CF911F910F91FF90EF90DF90CF901E
:1016D00093CF1F93CF93DF93EC01162F642F8C8150
:1016E00053DA8D818F3F11F060E04EDA8F85612FE4
:1016F00084FF05C0CE01DF91CF911F91BFCF70E075
:1017000084E0759567958A95E1F7CE018CDF612FAE
:10171000CE01DF91CF911F9186CF40E0DACF61E01B
:10172000FCDF80ED97E00DC9FC01443008F043E098
:101730008389481710F04FEF480FDF01A40FB11D48
:1017400054969C91690F6068CF01E7CFFC016089D6
:10175000262F2460208B6C60E0CFEF92FF920F93D6
:101760001F93CF93DF93EC01423018F08F85886090
:101770008F874B8B1C8A80E48D8B6E8B70E0605C56
:101780007F4F6F8B222329F0413019F48F858460BD
:101790008F8761E08C81BCD98D818F3F11F061E032
:1017A000B7D961E08E81B4D97E0187E0E80EF11CE3
:1017B00000E010E08F8584FD03C084E090E002C06B
:1017C00088E090E00817190744F461E0F70181917F
:1017D0007F019ED90F5F1F4FEDCF80E593ECB1D80D
:1017E00060E08C81D1D960E08E81CED98D818F3F30
:1017F00011F060E0C9D96F8564FD16C063E0CE01C9
:1018000012DF84E991E19DD863E0CE010CDF84E929
:1018100091E197D863E0CE0106DF86E990E091D8A8
:1018200062E0CE0100DF11C06062CE0176DF84E9A4
:1018300091E187D86F856062CE016FDF86E990E025
:1018400080D86F856062CE0168DF6F856062CE01EF
:1018500064DF84E0888BCE0179DFCE0160DF82E037
:10186000898B66E0CE01DF91CF911F910F91FF90A0
:10187000EF9053CFCF92EF920F93FC01138212821D
:1018800080E792E09183808364838FEF8583468332
:1018900027830087E186C2861386148615861686FE
:1018A000178620E041E060E1CF010F91EF90CF90EB
:1018B00054CF41E00EDF81E090E00895CF93CFB7A1
:1018C000F8948091CC02811123C0E1E2F2E084918E
:1018D000EBEDF1E09491E82FF0E0EE0FFF1FE45BF9
:1018E000FD4FA591B491EC91E92319F461E085E3F2
:1018F0004BD961E085E30CD98CB580618CBD8CB58A
:1019000080648CBD61E084E303D961E083E300D9A6
:101910008091CC028F5F8093CC02CFBFCF9108958E
:10192000089597FB072E16F4009406D077FD08D093
:1019300035D007FC05D03EF4909581959F4F0895D2
:10194000709561957F4F0895A1E21A2EAA1BBB1BCB
:10195000FD010DC0AA1FBB1FEE1FFF1FA217B3077B
:10196000E407F50720F0A21BB30BE40BF50B661F91
:10197000771F881F991F1A9469F760957095809555
:1019800090959B01AC01BD01CF010895EE0FFF1FA3
:10199000881F8BBF0790F691E02D1994AA1BBB1BE3
:1019A00051E107C0AA1FBB1FA617B70710F0A61B5F
:1019B000B70B881F991F5A95A9F780959095BC0180
:1019C000CD0108958F929F92AF92BF92CF92DF92F6
:1019D000EF92FF92CF93DF93EC01688179818A8146
:1019E0009B81611571058105910521F464E279ED12
:1019F0008BE597E02DE133EF41E050E041D0490124
:101A00005A019B01AC01A7EAB1E456D06B017C01FD
:101A1000ACEEB4EFA50194015BD0DC01CB018C0DE1
:101A20009D1DAE1DBF1DB7FF03C00197A109B048A2
:101A300088839983AA83BB839F77DF91CF91FF909F
:101A4000EF90DF90CF90BF90AF909F908F900895D0
:101A5000B9CF80E092E0B6CFA0E0B0E08093000282
:101A600090930102A0930202B09303020895FB0138
:101A7000DC0102C001900D9241505040D8F708950A
:101A8000052E97FB16F400940FD057FD05D05CDFB0
:101A900007FC02D046F408C050954095309521953A
:101AA0003F4F4F4F5F4F089590958095709561958A
:101AB0007F4F8F4F9F4F08950FD0A59F900DB49FDC
:101AC000900DA49F800D911D11240895B7FFF4CFB0
:101AD000F3DF821B930B0895A29FB001B39FC00157
:101AE000A39F700D811D1124911DB29F700D811D4A
:0A1AF0001124911D0895F894FFCF12
:101AFA000100000001000102030405000102342E66
:101B0A0035204C6561646572730053544154453AFB
:101B1A002049444C45004465766963652049443A46
:101B2A00200053544154453A2041435449564500F4
:101B3A0053454C454354494F4E3A20002D005354C7
:101B4A004154453A20564F5445440060616601703D
:101B5A00717602303136404146505156000000003D
:081B6A00590C4B0347034A0329
:00000001FF
