S0150000566F74696E67476174657761792E73726563C6
S11300000C948A000C94B2000C94B2000C94B200CC
S11300100C94B2000C94B2000C94B2000C94B20094
S11300200C94B2000C94B2000C94B2000C94B20084
S11300300C94B2000C94B2000C94B2000C94B20074
S11300400C9489040C94B2000C9448030C947A0325
S11300500C94B2000C94B2000C94B2000C94B20054
S11300600C94B2000C94B2009C071207A007150769
S113007018071C071F0722079A079A07250728074E
S11300802B072E0731073407A407420745079A07B1
S113009049074D07500753075607590787075C0759
S11300A05F07620765076807A807760779077D0772
S11300B080079A07840787078B078F07930797079B
S11300C00000000800020100000304070000000013
S11300D0000000000102040810204080010204080E
S11300E0102001020408102004040404040404047D
S11300F002020202020203030303030300000000DE
S1130100250028002B0000000000240027002A00FE
S1130110D400AA0311241FBECFEFD8E0DEBFCDBFA9
S113012011E0A0E0B1E0E2EAF7E102C005900D922F
S1130130AE33B107D9F722E0AEE3B1E001C01D92BE
S1130140AE31B207E1F710E0CAE8D0E004C021976D
S1130150FE010E94C00BC838D107C9F70E94D8031A
S11301600C94CF0B0C94000026E040E855E260E0CC
S113017070E083E791E00E94E30288E691E00E9448
S113018092086BE088E691E00E94BF0788E691E060
S11301900E94F206109241011092400181E0809386
S11301A03F0110923E0108950F931F9300E010E069
S11301B020E836E948E950E06AE088E691E00E94E8
S11301C0D2051F910F91089583E791E00E940702E1
S11301D018161906CCF483E791E00E9421029927AE
S11301E08835910571F024F48335910541F00CC0F4
S11301F08337910521F08837910519F005C081E016
S113020001C082E08093400180914101882319F06C
S1130210813019F008950C940F010C9473010F931D
S11302201F9380913F01882319F110923F0180E1CF
S113023090E0A0E0B0E08093580190935901A0931E
S11302405A01B0935B0182E080935C018093610169
S113025068E571E088E691E00E94C0090E94D30439
S113026060936F0170937001809371019093720198
S11302700E94D30400916F011091700120917101CB
S113028030917201DC01CB01801B910BA20BB30BEB
S1130290883E9340A105B10580F068E571E088E6E9
S11302A091E00E94C0090E94D30460936F0170938F
S11302B070018093710190937201809140018130AB
S11302C031F4109240018093410180933E0180916A
S11302D03E01882329F010923E0181E080933F0182
S11302E01F910F9108950F931F93CF93DF938091E4
S11302F03F018823E1F010923F0180E190E0A0E00B
S1130300B0E08093580190935901A0935A01B0939F
S11303105B0182E080935C0181E08093610168E588
S113032071E088E691E00E94C0090E94D3040E9413
S1130330D30400916F0110917001209171013091EB
S11303407201DC01CB01801B910BA20BB30B883E25
S11303509340A105B10580F068E571E088E691E07D
S11303600E94C0090E94D30460936F0170937001CE
S1130370809371019093720168E471E088E691E0E2
S11303800E94B50A81112AC08091480190914901C7
S1130390A0914A01B0914B014197A105B105F1F437
S11303A0C8E4D1E09E0128543140219680914C014B
S11303B090E02817390774F440E150E06F8183E737
S11303C091E00E94820469E071E083E791E00E9479
S11303D02604E8CF83E791E00E942804809140013D
S11303E0823039F4109240011092410181E08093EF
S11303F03E0180913E01882329F010923E0181E064
S113040080933F01DF91CF911F910F910895FC01DB
S1130410918D228D892F90E0805C9F4F821B9109E2
S11304208F7399270895FC01918D828D981731F06F
S1130430828DE80FF11D858D90E008958FEF9FEF79
S11304400895FC01918D828D981761F0828DDF01F2
S1130450A80FB11D5D968C91928D9F5F9F73928FB3
S113046090E008958FEF9FEF0895FC01538D448D24
S1130470252F30E0842F90E0821B930B541710F04B
S1130480CF9608950197089580EA93E0892B49F067
S113049080E090E0892B29F00E94A00381110C9444
S11304A000000895FC01848DDF01A80FB11DA35A3B
S11304B0BF4F2C91848D90E001968F739927848F80
S11304C0A689B7892C93A089B1898C9183708064A3
S11304D08C93938D848D981306C00288F389E02D44
S11304E080818F7D80830895EF92FF920F931F93F5
S11304F0CF93DF93EC0181E0888F9B8D8C8D9813D3
S113050005C0E889F989808185FD26C0F62E0B8D0A
S113051010E00F5F1F4F0F731127E02E8C8DE81230
S11305200CC00FB607FCFACFE889F989808185FFF2
S1130530F5CFCE010E945202F1CF8B8DFE01E80F60
S1130540F11DE35AFF4FF0829FB7F8940B8FEA89AD
S1130550FB89808180620AC09FB7F894EE89FF8985
S11305606083E889F98980818370806480839FBF78
S113057081E090E0DF91CF911F910F91FF90EF9078
S11305800895CF93DF93EC01888D8823C9F0EA891D
S1130590FB89808185FD05C0A889B9898C9186FD78
S11305A00FC00FB607FCF5CF808185FFF2CFA88975
S11305B0B9898C9185FFEDCFCE010E945202E7CF1D
S11305C0DF91CF910895CF92DF92EF92FF921F9324
S11305D0CF93DF93EC016A017B01122FE889F9893B
S11305E082E080834115514E61057105B1F060E0F0
S11305F079E08DE390E0A70196010E949E0BDA0159
S1130600C9010197A109B109B695A7959795879551
S11306109C01211580E13807A8F0E889F989108246
S113062060E874E88EE190E0A70196010E949E0BB9
S1130630DA01C9010197A109B109B695A795979562
S113064087959C01EC85FD853083EE85FF852083AD
S1130650188EEC89FD891083EA89FB898081806189
S11306608083EA89FB89808188608083EA89FB89A9
S1130670808180688083EA89FB8980818F7D808383
S1130680DF91CF911F91FF90EF90DF90CF9008956D
S11306901F920F920FB60F9211242F938F939F9353
S11306A0EF93FF93E0918301F09184018081E091C5
S11306B08901F0918A0182FD12C0908180918C01A0
S11306C08F5F8F7320918D01821751F0E0918C011F
S11306D0F0E0ED58FE4F958F80938C0101C080812E
S11306E0FF91EF919F918F912F910F900FBE0F90DB
S11306F01F9018951F920F920FB60F9211242F93EB
S11307003F934F935F936F937F938F939F93AF9395
S1130710BF93EF93FF9383E791E00E945202FF910E
S1130720EF91BF91AF919F918F917F916F915F9165
S11307304F913F912F910F900FBE0F901F901895DE
S113074083E791E00E94070221E0892B09F420E06D
S1130750822F0895E3E7F1E01382128288EE93E09A
S1130760A0E0B0E084839583A683B7838FE091E013
S11307709183808385EC90E09587848784EC90E076
S11307809787868780EC90E0918B808B81EC90E05A
S1130790938B828B82EC90E0958B848B86EC90E03B
S11307A0978B868B118E128E138E148E0895089556
S11307B00E9440050E94D7030E94B400C4E4D2E022
S11307C00E94E4002097E1F30E944402F9CFCF9203
S11307D0DF92EF92FF920F931F93CF93DF936C01FD
S11307E07A018B01C0E0D0E0CE15DF0581F0D8019D
S11307F06D918D01D601ED91FC910190F081E02D78
S1130800C6010995892B11F02196EECF7E01C7010F
S1130810DF91CF911F910F91FF90EF90DF90CF90D8
S113082008956115710579F0FB0101900020E9F745
S11308303197AF01461B570BDC01ED91FC9102800F
S1130840F381E02D099480E090E008950C94110464
S11308506DE171E00C9411048F929F92AF92BF925C
S1130860EF92FF920F931F93CF93DF93CDB7DEB731
S1130870A1970FB6F894DEBF0FBECDBF7C01FA017D
S1130880CB0119A2223008F42AE08E010F5D1F4F1C
S1130890822E912CA12CB12CBF01A50194010E94A0
S11308A09E0BF901CA01015011096A3010F4605D10
S11308B001C0695CD8016C93232B242B252B61F791
S11308C0B801C7010E941104A1960FB6F894DEBFC7
S11308D00FBECDBFDF91CF911F910F91FF90EF908D
S11308E0BF90AF909F908F9008952115310541F4EA
S11308F0DC01ED91FC910190F081E02D642F0994CD
S11309000C942C049A01462F50E060E070E00C94A3
S113091075041F920F920FB60F9211242F933F93D9
S11309208F939F93AF93BF93809111029091120282
S1130930A0911302B09114023091100223E0230F0E
S11309402D3720F40196A11DB11D05C026E8230F03
S11309500296A11DB11D2093100280931102909361
S11309601202A0931302B093140280911502909185
S11309701602A0911702B09118020196A11DB11D93
S11309808093150290931602A0931702B093180255
S1130990BF91AF919F918F913F912F910F900FBE77
S11309A00F901F9018952FB7F894609111027091D1
S11309B0120280911302909114022FBF08953FB741
S11309C0F8948091150290911602A0911702B091AB
S11309D0180226B5A89B05C02F3F19F00196A11D4A
S11309E0B11D3FBFBA2FA92F982F8827820F911DC1
S11309F0A11DB11DBC01CD0142E0660F771F881F08
S1130A00991F4A95D1F708958F929F92AF92BF9202
S1130A10CF92DF92EF92FF926B017C010E94DF0480
S1130A204B015C01C114D104E104F10401F10E9401
S1130A30090B0E94DF04DC01CB0188199909AA097A
S1130A40BB09883E9340A105B10560F321E0C21AB9
S1130A50D108E108F10888EE880E83E0981EA11CF5
S1130A60B11CC114D104E104F10419F7DBCFFF90E8
S1130A70EF90DF90CF90BF90AF909F908F900895AC
S1130A80789484B5826084BD84B5816084BD85B565
S1130A90826085BD85B5816085BDEEE6F0E080812C
S1130AA081608083E1E8F0E010828081826080834D
S1130AB0808181608083E0E8F0E0808181608083D0
S1130AC0E1EBF0E0808184608083E0EBF0E0808102
S1130AD081608083EAE7F0E08081846080838081A4
S1130AE0826080838081816080838081806880834C
S1130AF01092C10008958EBD00000DB407FEFDCF15
S1130B008EB50895FC01418152816381748180E036
S1130B1092E1AAE7B0E020E0481759076A077B078B
S1130B2040F4B695A795979587952F5F2630A1F742
S1130B3027E091E09227292F206A269591708091D1
S1130B401B02882399F08FB7F89430911B0231303F
S1130B5059F43DB3309319024DB330911A023095D4
S1130B6034233DBB8FBF02C0809319022CBD9DBDB1
S1130B7060E080810C946F0B61E0FC0180810E9435
S1130B806F0B80911B02882361F09FB7F89420912A
S1130B901B0280911902213019F48DBB9FBF089567
S1130BA08FBF08958F929F92AF92BF92FF920F933F
S1130BB01F93CF93DF93EC01F62E49015A010115DF
S1130BC0110519F01E830D8306C08DE192E09E830A
S1130BD08D830E94D30AF88289829A82AB82BC8276
S1130BE061E08F2D0E94330BCE01DF91CF911F91D5
S1130BF00F91FF90BF90AF909F908F900C94BC0585
S1130C001F93CF93DF93EC01162F0E94820583E09C
S1130C100E947B05812F0E947B0580E00E947B055A
S1130C20182FCE010E94BC05812FDF91CF911F9117
S1130C300895DF92EF92FF920F931F93CF93DF9368
S1130C408C01C62FD42EE52EF22E0E94820583E05D
S1130C500E947B058C2F0E947B05CD2DDE2DCE01BD
S1130C608F0D911D7C01CE15DF0529F080E00E94D7
S1130C707B058993F8CFC801DF91CF911F910F9124
S1130C80FF90EF90DF900C94BC050F931F93CF93CC
S1130C90DF93EC01062F142F0E94820582E00E944C
S1130CA07B05802F0E947B05812F0E947B05CE014E
S1130CB0DF91CF911F910F910C94BC05DF92EF92BD
S1130CC0FF920F931F93CF93DF938C01C62FD42EE3
S1130CD0E52EF22E0E94820582E00E947B058C2F75
S1130CE00E947B05CD2DDE2DCE018F0D911D7C0143
S1130CF0CE15DF0521F089910E947B05F9CFC8014B
S1130D00DF91CF911F910F91FF90EF90DF900C94A2
S1130D10BC05FF920F931F93CF93DF93EC01F62E44
S1130D20042F122F0E94820585E00E947B058F2DDF
S1130D300E947B05802F0E947B05812F0E947B05EA
S1130D40CE01DF91CF911F910F91FF900C94BC05C0
S1130D501F93CF93DF93EC010E94820580EA0E94E7
S1130D607B0580E00E947B05182FCE010E94BC0504
S1130D70812FDF91CF911F910895CF92DF92EF924F
S1130D80FF921F93CF93DF93EC01162F262F40EE93
S1130D906FE00E9489060E94D3046B017C012AE063
S1130DA0C20ED11CE11CF11C0E94D3046C157D05FC
S1130DB08E059F0548F46EE0CE010E940006807EF9
S1130DC01813F2CF81E001C080E091E08927DF9120
S1130DD0CF911F91FF90EF90DF90CF90089560E83E
S1130DE00C94BD0660E00C94BD060F931F93CF9343
S1130DF0DF938C01C62FD42F0E94EF068111BAC055
S1130E00D130A9F108F467C0D23009F093C08C2F17
S1130E1090E08031910508F08DC0FC01EC5CFF4F3F
S1130E200C94C00BC7E8DFEB32C0C4E8D4EA8AC034
S1130E30C5E8D2EE47E48FC0C7E8DFEB6AC0C6E876
S1130E40D4EB67C0C7E8DFEB68C0C6E8D4EB65C085
S1130E50C5E8D1EB62C0C6E8D4EB67C0C5E8D1EB06
S1130E6064C0C2E8D0E961C0C0E8D0E85EC08C2F9D
S1130E7090E08031910508F05DC0FC01EC5BFF4F10
S1130E800C94C00BC7E8DFEF59C0C7E8DFEF4FE0B1
S1130E9062C0C5E8D1EF4EE45EC0C7E8DFEF52C0E0
S1130EA0C7E8DAEF4FC0C7E8DFEF33C0C7E0DEEBD7
S1130EB030C0C7E0DDEA2DC0C6E8D0EF2AC0C7E8DD
S1130EC0DAEF2BC0C5E8D1EF2CC0C6E8D0EF2DC0B7
S1130ED0C2E8D0ED2AC08C2F90E0FC013497EC30AE
S1130EE0F10540F5EC5AFF4F0C94C00BC7E8DFEF57
S1130EF002C0C7E8DAEF49E02EC0C7E8DFEF02C05E
S1130F00C7E8DEEF44E027C0C7E8DAEFFBCFC7E865
S1130F10DAEF43E020C0C7E8DFEF41E01CC0C6E8D9
S1130F20DBEF41E418C0C7E8DAEF40E014C0C2E8E0
S1130F30D9EDFBCF81E01EC0C7E8DFEB4FE10BC06A
S1130F40C7E8DFEB47E007C0C7E8DFEF4FE303C0C4
S1130F50C7E8DFEF4BE06AE2C8010E9445064D2F67
S1130F6069E2C8010E9445064C2F68E2C8010E944C
S1130F70450680E0DF91CF911F910F91089541E0E4
S1130F800C94F5060F931F93FB014423B1F00383E4
S1130F901283890122273327902F9C71802F83701D
S1130FA048E0949F800D11248860818355E0169554
S1130FB007955A95E1F700830DC0C80123E0969583
S1130FC087952A95E1F780830295000F007E0183BF
S1130FD0138212821F910F9108958F929F92AF9264
S1130FE0BF92CF92DF92EF92FF920F931F93CF9312
S1130FF0DF9300D000D0CDB7DEB77C01D62EC42E4F
S1131000480159010E94EF0681111BC0950184011A
S11310104C2DBE016F5F7F4FC7010E94C207DD20C8
S113102029F081E0D8120CC064E201C060E224E03F
S1131030AE014F5F5F4FC7010E945E0680E001C0B2
S113104081E00F900F900F900F90DF91CF911F913F
S11310500F91FF90EF90DF90CF90BF90AF909F9053
S11310608F9008958F929F92AF92BF92CF92DF920A
S1131070EF92FF920F931F93CF93DF9300D000D092
S1131080CDB7DEB76C01F62EE42E480159010E945B
S1131090EF06811136C082E0F816A9F08F1540F0F2
S11310A0FF20D1F081E0F8122BC044E0F42E15C0EB
S11310B084E0F81671F0F81648F085E0F81220C0C4
S11310C088E1F82E0AC038E0F32E07C020E1F22EA2
S11310D004C094E1F92E01C0F12C950184014E2D38
S11310E0BE016F5F7F4FC6010E94C20724E0AE01BC
S11310F04F5F5F4F6F2DC6010E945E0680E001C006
S113110081E00F900F900F900F90DF91CF911F917E
S11311100F91FF90EF90DF90CF90BF90AF909F9092
S11311208F900895AF92BF92CF92DF92EF92FF9289
S11311300F931F93CF93DF93CDB7DEB764970FB6AA
S1131140F894DEBF0FBECDBF7C010E94820580EC07
S11311500E947B05C7010E94BC056AE070E080E044
S113116090E00E9404058E010F5F1F4F8EE0F8018E
S113117011928A95E9F72EE0A80160E3C7010E9465
S11311805E062EE0A80160E4C7010E945E062EE020
S1131190A80160E5C7010E945E0640E060E6C70161
S11311A00E94450640E060E7C7010E94450643EA05
S11311B06BE2C7010E94450624E047E660E6C701EA
S11311C00E94890621E047E660E7C7010E9489067C
S11311D086E0E0E0F1E0DE011F9601900D928A9531
S11311E0E1F75E01FFE0AF0EB11CC12CD12CF5017B
S11311F061915F0141E0F1E0CF16D10409F040E0D4
S113120000E010E09801C7010E943208811119C062
S11312108FEFC81AD80AE6E0CE16D10441F700E0F1
S113122010E0980141E060E0C7010E94ED078111E0
S113123008C000E010E0980141E061E0C7010E94AD
S1131240ED0764960FB6F894DEBF0FBECDBFDF91F5
S1131250CF911F910F91FF90EF90DF90CF90BF90AF
S1131260AF9008954F925F926F927F92AF92BF9228
S1131270CF92DF92EF92FF920F931F93CF93DF935E
S1131280CDB7DEB72D970FB6F894DEBF0FBECDBF36
S11312905C01FA012481293008F05CC0E62EF12CAF
S11312A080819181A281B381AC01BD01442777FD86
S11312B043955527662777272C013D01442455245F
S11312C0662420E47222B7FD05C00FEF17E020E08A
S11312D030E004C00FEF1FEF2FEF3FE16F01082351
S11312E019232A233B23BE016F5F7F4FC5010E9450
S11312F0C207F6011481812F45284628472809F0A2
S113130080648D83412F50E0B601685F7F4FCE012A
S113131006960E94C60B25E0210F8701000F111FBE
S11313200E0D1F1D0C5C1E4FAE014F5F5F4FF80189
S11313306181C5010E945E06F801108128E048E041
S1131340612FC5010E948906612FC5010E94000614
S1131350807709F084E02D960FB6F894DEBF0FBEB7
S1131360CDBFDF91CF911F910F91FF90EF90DF9050
S1131370CF90BF90AF907F906F905F904F90089503
S11313809F92AF92BF92CF92DF92EF92FF920F9310
S11313901F93CF93DF9300D01F92CDB7DEB7FB012D
S11313A024812930E8F57B018C018091060190911C
S11313B00701A091080189839A83AB83CE0101962A
S11313C06C015E0194E0A90EB11CF60191906F01CD
S11313D0292D30E0F901EE0FFF1F2E0F3F1FF901F9
S11313E0EC5CFE4F6081C8010E94000683FD13C0BF
S11313F0A701692DC8010F900F900F90DF91CF9135
S11314001F910F91FF90EF90DF90CF90BF90AF901E
S11314109F900C943209CA14DB04B9F682E001C02F
S113142084E00F900F900F90DF91CF911F910F9157
S1131430FF90EF90DF90CF90BF90AF909F90089572
S11314407F928F929F92AF92BF92CF92DF92EF9250
S1131450FF920F931F93CF93DF9300D000D01F927E
S1131460CDB7DEB74C015A0124E0629F80011124FC
S1131470F801E45DFE4F25E0AE014F5F5F4F6181EF
S11314800E9419068A819981C82ED12C45E0D594F1
S1131490C7944A95E1F7E8E09E9FC00CD11C112443
S11314A00D2C000CEE08FF0883FF20C092E0CC0C4A
S11314B0DD1CEE1CFF1C9A95D1F78370C80ED11C5D
S11314C0E11CF11CFE2CED2CDC2CCC248B81C80EF1
S11314D0D11CE11CF11CFE2CED2CDC2CCC248C81C9
S11314E0C80ED11CE11CF11C6894F7F88D818F7033
S11314F0782EF8E0F81728F1F801E45DFE4F6081DA
S1131500C4010E94000683FF02C06894F6F8F50146
S1131510C082D182E282F3827482A501485F5F4F68
S1131520045D1E4F272DF8016281C4010E94190633
S113153020E0F80143816CE2C4010E94890680E046
S113154001C081E00F900F900F900F900F90DF91EA
S1131550CF911F910F91FF90EF90DF90CF90BF90AC
S1131560AF909F908F907F9008950F931F93CF9388
S1131570DF93EC018B010E94A80680FF03C0A80141
S113158060E004C081FF09C0A80161E0CE01DF91E1
S1131590CF911F910F910C94200A85E0DF91CF9198
S11315A01F910F910895CF93CFB7F89480911C02A7
S11315B0811127C0E2EFF0E08491EEEDF0E0949128
S11315C0E82FF0E0EE0FFF1FEA5FFE4FA591B49104
S11315D0EC91E92321F461E08AE00E946F0B61E061
S11315E08AE00E94330B8CB580618CBD8CB580641D
S11315F08CBD61E08DE00E94330B61E08BE00E94C2
S1131600330B80911C028F5F80931C02CFBFCF915C
S113161008950895833081F028F4813099F0823060
S1131620A1F008958730A9F08830B9F08430D1F45E
S1131630809180008F7D03C0809180008F7780939C
S11316408000089584B58F7702C084B58F7D84BDF2
S113165008958091B0008F7703C08091B0008F7D92
S11316608093B0000895CF93DF9390E0FC01EC5297
S1131670FF4F2491FC01E851FF4F8491882361F1CD
S113168090E0880F991FFC01EA5FFE4FC591D49149
S1131690FC01E450FF4FA591B491611109C09FB7BB
S11316A0F8948881209582238883EC912E230BC0A3
S11316B0623061F49FB7F8948881322F3095832388
S11316C08883EC912E2B2C939FBF06C08FB7F89480
S11316D0E8812E2B28838FBFDF91CF9108951F932C
S11316E0CF93DF93282F30E0F901E054FF4F84912A
S11316F0F901EC52FF4FD491F901E851FF4FC49125
S1131700CC23C1F0162F81110E940A0BEC2FF0E0BC
S1131710EE0FFF1FE450FF4FA591B4919FB7F894CB
S1131720111104C08C91D095D82302C0EC91DE2B0A
S1131730DC939FBFDF91CF911F910895A1E21A2EF0
S1131740AA1BBB1BFD010DC0AA1FBB1FEE1FFF1F61
S1131750A217B307E407F50720F0A21BB30BE40BB1
S1131760F50B661F771F881F991F1A9469F76095F8
S11317707095809590959B01AC01BD01CF010895B2
S1131780EE0FFF1F0590F491E02D0994FB01DC019D
S113179002C001900D9241505040D8F70895F8943A
S10517A0FFCF75
S11317A2000102030405000102200000000000748D
S11317B202E7033502C1020702210213020D0A00E5
S11317C26E616E00696E66006F7666006061660126
S11117D2707176023031364041465051560057
S9030000FC
